{
  "contractName": "ItemManager",
  "abi": [
    {
      "anonymous": false,
      "inputs": [
        {
          "indexed": false,
          "internalType": "uint256",
          "name": "index",
          "type": "uint256"
        },
        {
          "indexed": false,
          "internalType": "uint256",
          "name": "step",
          "type": "uint256"
        },
        {
          "indexed": false,
          "internalType": "address",
          "name": "itemAddress",
          "type": "address"
        }
      ],
      "name": "SupplyItemStep",
      "type": "event"
    },
    {
      "inputs": [
        {
          "internalType": "uint256",
          "name": "",
          "type": "uint256"
        }
      ],
      "name": "items",
      "outputs": [
        {
          "internalType": "contract Item",
          "name": "item",
          "type": "address"
        },
        {
          "internalType": "string",
          "name": "id",
          "type": "string"
        },
        {
          "internalType": "uint256",
          "name": "price",
          "type": "uint256"
        },
        {
          "internalType": "uint256",
          "name": "altprice",
          "type": "uint256"
        },
        {
          "internalType": "enum ItemManager.SupplyChainState",
          "name": "status",
          "type": "uint8"
        }
      ],
      "stateMutability": "view",
      "type": "function",
      "constant": true
    },
    {
      "inputs": [
        {
          "internalType": "string",
          "name": "identifier",
          "type": "string"
        },
        {
          "internalType": "uint256",
          "name": "itemPrice",
          "type": "uint256"
        }
      ],
      "name": "createItem",
      "outputs": [],
      "stateMutability": "nonpayable",
      "type": "function"
    },
    {
      "inputs": [
        {
          "internalType": "uint256",
          "name": "index",
          "type": "uint256"
        }
      ],
      "name": "triggerPayment",
      "outputs": [],
      "stateMutability": "payable",
      "type": "function",
      "payable": true
    },
    {
      "inputs": [
        {
          "internalType": "uint256",
          "name": "index",
          "type": "uint256"
        }
      ],
      "name": "triggerDelivery",
      "outputs": [],
      "stateMutability": "nonpayable",
      "type": "function"
    },
    {
      "inputs": [],
      "name": "is_the_owner3",
      "outputs": [
        {
          "internalType": "bool",
          "name": "",
          "type": "bool"
        }
      ],
      "stateMutability": "view",
      "type": "function",
      "constant": true
    }
  ],
  "bytecode": "0x6080604052336000806101000a81548173ffffffffffffffffffffffffffffffffffffffff021916908373ffffffffffffffffffffffffffffffffffffffff160217905550611292806100536000396000f3fe60806040526004361061004a5760003560e01c8063800fb83f1461004f5780638c5517421461007d578063bfb231d21461014f578063cd31831e14610259578063f73ab9eb14610294575b600080fd5b61007b6004803603602081101561006557600080fd5b81019080803590602001909291905050506102c3565b005b34801561008957600080fd5b5061014d600480360360408110156100a057600080fd5b81019080803590602001906401000000008111156100bd57600080fd5b8201836020820111156100cf57600080fd5b803590602001918460018302840111640100000000831117156100f157600080fd5b91908080601f016020809104026020016040519081016040528093929190818152602001838380828437600081840152601f19601f820116905080830192505050505050509192919290803590602001909291905050506105a2565b005b34801561015b57600080fd5b506101886004803603602081101561017257600080fd5b8101908080359060200190929190505050610871565b604051808673ffffffffffffffffffffffffffffffffffffffff1673ffffffffffffffffffffffffffffffffffffffff168152602001806020018581526020018481526020018360028111156101da57fe5b60ff168152602001828103825286818151815260200191508051906020019080838360005b8381101561021a5780820151818401526020810190506101ff565b50505050905090810190601f1680156102475780820380516001836020036101000a031916815260200191505b50965050505050505060405180910390f35b34801561026557600080fd5b506102926004803603602081101561027c57600080fd5b810190808035906020019092919050505061096c565b005b3480156102a057600080fd5b506102a9610c81565b604051808215151515815260200191505060405180910390f35b600060016000838152602001908152602001600020600201541415610350576040517f08c379a00000000000000000000000000000000000000000000000000000000081526004018080602001828103825260138152602001807f4974656d20646f65736e2774206578697374730000000000000000000000000081525060200191505060405180910390fd5b346001600083815260200190815260200160002060020154146103db576040517f08c379a00000000000000000000000000000000000000000000000000000000081526004018080602001828103825260118152602001807f4e6f746520656e6f756768206d6f6e657900000000000000000000000000000081525060200191505060405180910390fd5b600060028111156103e857fe5b6001600083815260200190815260200160002060040160009054906101000a900460ff16600281111561041757fe5b1461048a576040517f08c379a00000000000000000000000000000000000000000000000000000000081526004018080602001828103825260098152602001807f4974656d20736f6c64000000000000000000000000000000000000000000000081525060200191505060405180910390fd5b6001600281111561049757fe5b6001600083815260200190815260200160002060040160009054906101000a900460ff1660028111156104c657fe5b50507f59dc81c626d04e0b9d854211d22808d31d5964fc359edb8e7c73494afd5bd598816001600084815260200190815260200160002060040160009054906101000a900460ff16600281111561051957fe5b6001600085815260200190815260200160002060000160009054906101000a900473ffffffffffffffffffffffffffffffffffffffff16604051808481526020018381526020018273ffffffffffffffffffffffffffffffffffffffff1673ffffffffffffffffffffffffffffffffffffffff168152602001935050505060405180910390a150565b6000809054906101000a900473ffffffffffffffffffffffffffffffffffffffff1673ffffffffffffffffffffffffffffffffffffffff163373ffffffffffffffffffffffffffffffffffffffff1614610664576040517f08c379a000000000000000000000000000000000000000000000000000000000815260040180806020018281038252600d8152602001807f4e6f7420746865206f776e65720000000000000000000000000000000000000081525060200191505060405180910390fd5b6000308260025460405161067790610ce9565b808473ffffffffffffffffffffffffffffffffffffffff1673ffffffffffffffffffffffffffffffffffffffff1681526020018381526020018281526020019350505050604051809103906000f0801580156106d7573d6000803e3d6000fd5b509050826001600060025481526020019081526020016000206001019080519060200190610706929190610cf6565b5081600160006002548152602001908152602001600020600201819055508060016000600254815260200190815260200160002060000160006101000a81548173ffffffffffffffffffffffffffffffffffffffff021916908373ffffffffffffffffffffffffffffffffffffffff160217905550600060016000600254815260200190815260200160002060040160006101000a81548160ff021916908360028111156107b057fe5b02179055507f59dc81c626d04e0b9d854211d22808d31d5964fc359edb8e7c73494afd5bd59860025460016000600254815260200190815260200160002060040160009054906101000a900460ff16600281111561080a57fe5b83604051808481526020018381526020018273ffffffffffffffffffffffffffffffffffffffff1673ffffffffffffffffffffffffffffffffffffffff168152602001935050505060405180910390a1600260008154809291906001019190505550505050565b60016020528060005260406000206000915090508060000160009054906101000a900473ffffffffffffffffffffffffffffffffffffffff1690806001018054600181600116156101000203166002900480601f0160208091040260200160405190810160405280929190818152602001828054600181600116156101000203166002900480156109435780601f1061091857610100808354040283529160200191610943565b820191906000526020600020905b81548152906001019060200180831161092657829003601f168201915b5050505050908060020154908060030154908060040160009054906101000a900460ff16905085565b6000809054906101000a900473ffffffffffffffffffffffffffffffffffffffff1673ffffffffffffffffffffffffffffffffffffffff163373ffffffffffffffffffffffffffffffffffffffff1614610a2e576040517f08c379a000000000000000000000000000000000000000000000000000000000815260040180806020018281038252600d8152602001807f4e6f7420746865206f776e65720000000000000000000000000000000000000081525060200191505060405180910390fd5b600060016000838152602001908152602001600020600201541415610abb576040517f08c379a00000000000000000000000000000000000000000000000000000000081526004018080602001828103825260138152602001807f4974656d20646f65736e2774206578697374730000000000000000000000000081525060200191505060405180910390fd5b60016002811115610ac857fe5b6001600083815260200190815260200160002060040160009054906101000a900460ff166002811115610af757fe5b14610b6a576040517f08c379a00000000000000000000000000000000000000000000000000000000081526004018080602001828103825260158152602001807f4974656d2073746174757320696e636f7272656374000000000000000000000081525060200191505060405180910390fd5b600280811115610b7657fe5b6001600083815260200190815260200160002060040160009054906101000a900460ff166002811115610ba557fe5b50507f59dc81c626d04e0b9d854211d22808d31d5964fc359edb8e7c73494afd5bd598816001600084815260200190815260200160002060040160009054906101000a900460ff166002811115610bf857fe5b6001600085815260200190815260200160002060000160009054906101000a900473ffffffffffffffffffffffffffffffffffffffff16604051808481526020018381526020018273ffffffffffffffffffffffffffffffffffffffff1673ffffffffffffffffffffffffffffffffffffffff168152602001935050505060405180910390a150565b60008060009054906101000a900473ffffffffffffffffffffffffffffffffffffffff1673ffffffffffffffffffffffffffffffffffffffff163373ffffffffffffffffffffffffffffffffffffffff161415610ce15760019050610ce6565b600090505b90565b6104c180610d9c83390190565b828054600181600116156101000203166002900490600052602060002090601f016020900481019282601f10610d3757805160ff1916838001178555610d65565b82800160010185558215610d65579182015b82811115610d64578251825591602001919060010190610d49565b5b509050610d729190610d76565b5090565b610d9891905b80821115610d94576000816000905550600101610d7c565b5090565b9056fe608060405234801561001057600080fd5b506040516104c13803806104c18339818101604052606081101561003357600080fd5b8101908080519060200190929190805190602001909291908051906020019092919050505082600360006101000a81548173ffffffffffffffffffffffffffffffffffffffff021916908373ffffffffffffffffffffffffffffffffffffffff1602179055508160008190555080600281905550505050610408806100b96000396000f3fe6080604052600436106100385760003560e01c80632986c0e51461030e57806389794d0014610339578063a035b1fe14610364576102ff565b366102ff576000600154146100b5576040517f08c379a00000000000000000000000000000000000000000000000000000000081526004018080602001828103825260148152602001807f4974656d20697320616c7265616479207061696400000000000000000000000081525060200191505060405180910390fd5b346000541461012c576040517f08c379a00000000000000000000000000000000000000000000000000000000081526004018080602001828103825260108152602001807f416d6f756e7420696e636f72726563740000000000000000000000000000000081525060200191505060405180910390fd5b346001600082825401925050819055506000600360009054906101000a900473ffffffffffffffffffffffffffffffffffffffff1673ffffffffffffffffffffffffffffffffffffffff1634600254604051602401808281526020019150506040516020818303038152906040527f800fb83f000000000000000000000000000000000000000000000000000000007bffffffffffffffffffffffffffffffffffffffffffffffffffffffff19166020820180517bffffffffffffffffffffffffffffffffffffffffffffffffffffffff83818316178352505050506040518082805190602001908083835b6020831061023b5780518252602082019150602081019050602083039250610218565b6001836020036101000a03801982511681845116808217855250505050505090500191505060006040518083038185875af1925050503d806000811461029d576040519150601f19603f3d011682016040523d82523d6000602084013e6102a2565b606091505b50509050806102fc576040517f08c379a00000000000000000000000000000000000000000000000000000000081526004018080602001828103825260318152602001806103a26031913960400191505060405180910390fd5b50005b34801561030b57600080fd5b50005b34801561031a57600080fd5b5061032361038f565b6040518082815260200191505060405180910390f35b34801561034557600080fd5b5061034e610395565b6040518082815260200191505060405180910390f35b34801561037057600080fd5b5061037961039b565b6040518082815260200191505060405180910390f35b60025481565b60015481565b6000548156fe536f6d65746869676e2077656e742077726f6e672077697468207472616e73616374696f6e2e2043616e63656c6c696e67a26469706673582212201ed3d32dbeb8ece27bb28b8abbeb92bf96b444f5e97e333ad8091cbd5fe0c98c64736f6c63430006000033a26469706673582212204bc05120c663aba408e1b6f66e360d437d46b4d631e2396bebfe908465485ff664736f6c63430006000033",
  "source": "pragma solidity ^0.6.0;\n\nimport \"./Item.sol\";\nimport \"./Owner.sol\";\n\ncontract ItemManager is Ownable{\n    enum SupplyChainState{Created, Paid, Delivered}\n\n    mapping(uint => inStockItems) public items;\n    uint itemIndex;\n    struct inStockItems{\n        Item item;\n        string id;\n        uint price;\n        uint altprice;\n        ItemManager.SupplyChainState status;\n    }\n\n    event SupplyItemStep(uint index, uint step, address itemAddress);\n\n    function createItem(string memory identifier, uint itemPrice) public onlyOwner{\n        Item itm = new Item(this, itemPrice, itemIndex);\n        items[itemIndex].id = identifier;\n        items[itemIndex].price = itemPrice;\n        items[itemIndex].item = itm;\n        items[itemIndex].status = ItemManager.SupplyChainState.Created;\n        emit SupplyItemStep(itemIndex, uint(items[itemIndex].status), address(itm));\n        itemIndex++;\n    }\n\n    function triggerPayment(uint index) payable public{\n        require(items[index].price != 0, \"Item doesn't exists\");\n        require(items[index].price == msg.value, \"Note enough money\");\n        require(items[index].status == ItemManager.SupplyChainState.Created, \"Item sold\");\n        items[index].status == ItemManager.SupplyChainState.Paid;\n        emit SupplyItemStep(index, uint(items[index].status), address(items[index].item));\n    }\n\n    function triggerDelivery(uint index) public onlyOwner{\n        require(items[index].price != 0, \"Item doesn't exists\");\n        require(items[index].status == ItemManager.SupplyChainState.Paid, \"Item status incorrect\");\n        items[index].status == ItemManager.SupplyChainState.Delivered;\n        emit SupplyItemStep(index, uint(items[index].status), address(items[index].item));\n    }\n\n    function is_the_owner3 () public view returns (bool){\n            if(msg.sender == owner){return true;}else{return false;}\n        }\n}\n",
  "sourcePath": "/home/elementary/Documentos/Blockchain/Course Udemy/Item manager/contracts/ItemManager.sol",
  "compiler": {
    "name": "solc",
    "version": "0.6.0+commit.26b70077.Emscripten.clang"
  },
  "schemaVersion": "3.1.0",
  "updatedAt": "2020-12-22T20:26:06.617Z",
  "networkType": "ethereum",
  "devdoc": {
    "methods": {}
  },
  "userdoc": {
    "methods": {}
  }
}